:060000000A128A11FC2F18
:100DB0000A128A11EE2683160313111408000A1270
:100DC0008A11EE2683160313111508000A128A11E0
:100DD000EE26700883120313930008008316031392
:100DE0001419EE2E11081F3903190800EE2E0A12ED
:100DF0008A11EE260A128A118316031391150A121C
:100E00008A11EE260A128A11831203131308F200C4
:100E1000F3017208F4007308F5000A128A11EE2635
:100E20000A128A1170087104031D1A2F8316031306
:100E300091161D2F83160313911211167508F100D8
:100E40007408F000080028308312031394008316FE
:100E500003139101831203132008A4002108A500A5
:100E60002208A6002308A70002300310A40DA50D38
:100E7000A60DA70DFF3E031D352F2708F3002608FA
:100E8000F2002508F1002408F0000030F7003D30A2
:100E9000F6000930F5000030F4000A128A119E278E
:100EA0007008FF3E831603139300940187150716FD
:100EB0000800831603138113FF3086008801831214
:100EC000031388010030A3000130A2008630A10086
:100ED000A030A0000A128A1123270A128A110A12CE
:100EE0008A11D8260A128A113130F0000030F10040
:100EF0000A128A11E6260A128A110030F000F10067
:100F00000A128A11F7260A128A1170088312031333
:100F100088000A128A11DF260A128A11023083120F
:100F20000313AA000430A900BA30A800A80B962F1A
:100F3000A90B962FAA0B962F00006F2F0030FC00F4
:100F40000030FB000030FA000030F9007308720432
:100F5000710470040319F32FFD01FD0AF31BBE2F6A
:100F60000130F8000310F00DF10DF20DF30DF80B48
:100F7000B22F0130F8007808FD07AE2F0130F800DD
:100F80000310F90DFA0DFB0DFC0DF80BC02F7308C3
:100F90007702031DD52F72087602031DD52F710825
:100FA0007502031DD52F70087402031CE62F70080C
:100FB000F4027108031C710FF5027208031C720F12
:100FC000F6027308031C730FF70279140130031043
:100FD000F30CF20CF10CF00CFF3E031DE72F013077
:100FE000FD02031DBE2F7C08F3007B08F2007A0887
:100FF000F1007908F000080083010A128A11592FC4
:02400E00393F38
:00000001FF
